:100000000C94A0000C94BD000C94BD000C94BD0099
:100010000C94BD000C94BD000C94BD000C94BD006C
:100020000C94BD000C94BD000C94BD000C94BD005C
:100030000C94BD000C94BD000C94BD000C94BD004C
:100040000C94BD000C94BD000C94BD000C94BD003C
:100050000C94BD000C94BD000C94BD000C94BD002C
:100060000C94BD000C94BD000C94BD000C94BD001C
:100070000C94BD000C94BD000C94BD00DC00ED00A0
:1000800014011B0167011B017701A601A60187016D
:10009000301F841F841F841F841F841F841F841F9C
:1000A000841F841F841F841F841F841F841F841F38
:1000B000841F841F841FC91E841F841F841F841FE4
:1000C000841F841F841F841F841F8A1FCE1EC31E8B
:1000D000301F301F841F841F841F841F841F841FB0
:1000E000841F841F8F1F841F841F841FD91E841F99
:1000F000C31E841F841FC91E6364696E6F7073758D
:1001000078585B004E414E494E495459494E46CDB0
:10011000CCCC3D0AD7233C17B7D13877CC2B3295BE
:1001200095E6241FB14F0A000020410000C842009C
:10013000401C4620BCBE4CCA1B0E5AAEC59D740066
:1001400011241FBECFEFD0E1DEBFCDBF12E0A0E093
:10015000B1E0E0EAF7E502C005900D92A63DB107D7
:10016000D9F727E0A6EDB2E001C01D92A733B20790
:10017000E1F70E943E030C94CE2B0C9400008F926A
:100180009F92AF92BF92CF92DF92EF92FF920F9326
:100190001F93CF93DF938B0161E071E00E94D22324
:1001A000C0E0D0E0E6C0CA30D10508F0CFC0FE0103
:1001B000E25CFF4F0C940423FC012081243209F0FF
:1001C000DEC043E050E063E071E003960E94FF234D
:1001D000892B09F0D7C02196C6C0FC0120812134AB
:1001E00009F4D3C0263509F4D3C098012E5E3F4FE1
:1001F0003F932F93225031093F932F93225031097F
:100200003F932F9327E031E03F932F939F938F935A
:100210000E946C2421968DB79EB70A960FB6F8946B
:100220009EBF0FBE8DBF9FC0FC018081863509F443
:10023000B2C0219698C00E94CE236B017C010E941F
:100240006F21CB0164E670E00E94CE22CB0124E650
:10025000289FB001299F700D1124072E000C880BD8
:10026000990B0E94A7219B01AC01C701B6010E9416
:100270008B204B015C019B01AC01C701B6010E94C0
:100280008B2020E030E048EC52E40E94FD206B011E
:100290007C0120E030E040E752E4C501B4010E9457
:1002A000FD209B01AC01C701B6010E948C20C33028
:1002B000D10531F4F801608371838283938305C093
:1002C000F801648375838683978321964CC0FC0173
:1002D0008081873551F4F80180819181A281B381B9
:1002E000B05880839183A283B38321963CC0FC01E4
:1002F0008081833551F4F80184819581A681B7818D
:10030000B05884839583A683B78321962CC0980127
:10031000245F3F4F3F932F93225031093F932F93F8
:10032000225031093F932F9324E131E03F932F93E3
:100330009F938F930E946C2421968DB79EB70A9647
:100340000FB6F8949EBF0FBE8DBF0DC09F938F93C5
:1003500084E291E09F938F930E94342421960F9022
:100360000F900F900F9061E071E080E090E00E94AC
:10037000D223009709F017CF81E090E00EC080E013
:1003800090E00BC080E090E008C080E090E005C005
:1003900080E090E002C080E090E0DF91CF911F917B
:1003A0000F91FF90EF90DF90CF90BF90AF909F9014
:1003B0008F900895CF93C62F92B19F7B92B90E94E0
:1003C00059208C2F0E945E2092B1906492B9CF91F7
:1003D000089580680E94DA010895AF92BF92CF928B
:1003E000DF92EF92FF920F931F93CF93DF936B01F6
:1003F0007C01FF0CCC08DC2C7601262F372F482FF0
:10040000592F6C2D7C2D8C2D9C2D03E10E94742383
:10041000A12C0F2EF8E4BF2EF02D0F2EF8EECF2ECC
:10042000F02DDD24D394E12CF12C00E010E00E94AB
:100430001723F22EB32E142FD52FC62FC72ED82E4A
:10044000E92E00E10E948F23622F86E00E94E901DD
:100450002F2D3B2D412F5D2F6C2F7C2D8D2D9E2D13
:1004600008E00E948F23622F87E00E94E9016F2D30
:1004700088E00E94E901DF91CF911F910F91FF90D9
:10048000EF90DF90CF90BF90AF900895893738F408
:1004900090E08D9765E070E00E94CE220AC0813F17
:1004A00038F490E04E966AE070E00E94CE2201C0DF
:1004B0006BE16F7160628BE00E94E9010895CF9358
:1004C000DF93EC01823191056CF0459714F0C4E1A3
:1004D000D0E0239767E88DE40E94E9018CE80E9450
:1004E00046020BC0029714F4C2E0D0E064E88DE449
:1004F0000E94E90184E60E9446026C2F6250606807
:1005000089E00E94E901DF91CF91089560E881E0E0
:100510000E94E901089561E881E00E94E9010895DF
:1005200060E08F770E94DA01089582E40E949002D1
:10053000823121F50E94860260E075E381EC93E34D
:100540000E94ED0160E08EE00E94E90160E08FE032
:100550000E94E9018CE00E949002682F63608CE0A9
:100560000E94E90164E086E20E94E9018CE090E0EB
:100570000E945F020E948B0281E0089580E008954E
:10058000CF93C82F8DE10E94900290E1C99F900106
:1005900011248F70682F622B8DE10E94E901CF91A9
:1005A0000895CF93DF93EC01863091051CF00D97F1
:1005B00024F405C0C6E0D0E002C0CCE0D0E0C630F4
:1005C000D10549F465EC81E30E94E9016CE087E321
:1005D0000E94E90108C063EC81E30E94E9016AE03E
:1005E00087E30E94E9018EE10E949002C295D295B4
:1005F000D07FDC27C07FDC278F706C2F682B8EE1CB
:100600000E94E901DF91CF9108950F931F93CF933B
:10061000DF93662371F1D62F8C010E948B028DE14E
:100620000E949002682F6E7F8DE10E94E90160E0D8
:100630008DE00E94E901C0E008C0F801EC0FF11D57
:10064000608180E00E94E901CF5FCD17B0F36D2F8C
:1006500082E20E94E90163E881E00E94E90182E10F
:100660000E949002682F687083FFF9CF82E10E9498
:10067000E901DF91CF911F910F910895CF93DF93FF
:10068000CDB7DEB7C656D1090FB6F894DEBF0FBEA0
:10069000CDBF8AB180618AB98BB18F7E8BB90E9440
:1006A00064200E944C202FE38DE093E02150804095
:1006B0009040E1F700C000008BB180618BB987EA00
:1006C00091E60197F1F700C000008BB18F7E8BB9E6
:1006D00040E06CEB71E08DED92E00E94C1180E9449
:1006E0009502F82E87E090E00E94D10287E00E94F8
:1006F000C00264E28AE291E00E9405038FE491E087
:100700000E947E2085E691E00E947E208BE791E0AA
:100710000E947E2081E991E00E947E2087EA91E09C
:100720000E947E208DEB91E00E947E2083ED91E07F
:100730000E947E2089EE91E00E947E208FEF91E062
:100740000E947E2085E192E00E947E204AE06CE2D9
:1007500072E08DE095E00E941019811112C084E3CF
:1007600092E09F938F938DE095E09F938F930E94EB
:10077000D41D8DE095E00E94B61D0F900F900F9054
:100780000F900FEF1FEF0F5F1F4F0E947020E1E0EF
:10079000F0E0EC0FFD1FE00FF11F80838A3099F726
:1007A000E1E0F0E0EC0FFD1FE00FF11F1082BE0151
:1007B0006D5A7F4FCE0101960E94BF00892B09F32D
:1007C00042E36CE272E08DE095E00E941019811125
:1007D00063C0A696AFADA697A796BFADA797A49600
:1007E000EFADA497A596FFADA597A2966FADA29782
:1007F000A3967FADA397A0964FADA097A1965FADAE
:10080000A1976E962FAD6E976F963FAD6F976C96D2
:100810008FAD6C976D969FAD6D976B961FAD6B9777
:100820001F936A961FAD6A971F9369961FAD6997CC
:100830001F9368961FAD68971F9367961FAD6797C4
:100840001F9366961FAD66971F9365961FAD6597BC
:100850001F9364961FAD64971F93BF93AF93FF934D
:10086000EF937F936F935F934F933F932F939F9358
:100870008F938AE592E09F938F938DE095E09F930D
:100880008F930E94D41D8DE095E00E94B61D0FB697
:10089000F894DEBF0FBECDBFFF2009F472CF6B9678
:1008A0006CAD7DAD8EAD9FAD6B9720E030E543EC38
:1008B00057E40E945C220E946F21D62EC72EB82ECC
:1008C000A92E67966CAD7DAD8EAD9FAD679720E08C
:1008D00030E543EC57E40E945C220E946F21A09611
:1008E000EFACA097A1969FACA1976E961FAD6E97A7
:1008F0006F960FAD6F976C96AFAD6C976D96BFAD61
:100900006D97A696EFADA697A796FFADA797A4966D
:100910004FADA497A5965FADA597A2962FADA297D0
:10092000A3963FADA397AF92BF92CF92DF929F93D2
:100930008F937F936F939F92EF920F931F93BF9329
:10094000AF93FF93EF935F934F933F932F931F9238
:1009500081E08F9380E892E09F938F938E010F5FE9
:100960001F4F1F930F930E944A24682FC8010E94B3
:1009700005030FB6F894DEBF0FBECDBF02CF8EBD0C
:100980000DB407FEFDCF08958FEF8EBD0DB407FEA9
:10099000FDCF8EB5089585B1806185B90E94C404EC
:1009A00008950F931F93CF93DF93FC01EB018F0109
:1009B0000F5F1F4F80810E94BF042197F801B9F794
:1009C000DF91CF911F910F910895EF92FF920F93B6
:1009D0001F93CF93DF938C01EB0178018FEFE81A1F
:1009E000F80A0E94C404F801808321978701A9F7BF
:1009F000DF91CF911F910F91FF90EF900895CF93CA
:100A0000DF93C8E8D3E109C00E94C4048F3F39F0E6
:100A100081E28A95F1F7000021972097A9F781E0FC
:100A2000CD2B09F480E090E0DF91CF910895CF9332
:100A3000DF9385B18F7E85B90E94C4040E94FF04B4
:100A4000EC01892B19F40E94CB0402C0C1E0D0E074
:100A5000CE01DF91CF910895DF92EF92FF920F9335
:100A60001F93CF93DF93CDB7DEB727970FB6F894D8
:100A7000DEBF0FBECDBF182F042FF52EE62ED72ECA
:100A800088234CF41F7740E050E0BA0187E30E94CE
:100A90002C058230A0F51C3031F00E94CB040E945E
:100AA0001705892B59F1812F80648A83DB82EC82C0
:100AB000FD820E83112311F081E001C085E9183019
:100AC00009F487E88F8366E070E0CE0102960E9409
:100AD000D1041C3031F461E070E0CE0101960E9437
:100AE000E5041AE061E070E0CE0101960E94E504A1
:100AF0008981882324F41150A9F701C08FEF27962C
:100B00000FB6F894DEBF0FBECDBFDF91CF911F911E
:100B10000F91FF90EF90DF900895EF92FF921F9357
:100B2000CF93DF9300D0CDB7DEB77C01162F0E94A4
:100B3000FF04009731F1198361E070E0CE01019666
:100B40000E94D1041D3FC1F060E072E0C7010E9425
:100B5000D10462E070E0CE0101960E94E50461E0FC
:100B600070E0CE0101960E94E50489818F71853085
:100B700031F080E090E005C081E090E002C081E0CB
:100B800090E00F900F90DF91CF911F91FF90EF9029
:100B90000895CF92DF92EF92FF920F931F93CF931E
:100BA000DF9300D0CDB7DEB77C016B0108EE13E018
:100BB0000FC061E070E0CE0101960E94E5048981DA
:100BC0008F3F49F481E28A95F1F700000150110945
:100BD0000115110571F789818E3F69F4B601C701CE
:100BE0000E94E50462E070E0CE0101960E94E504F7
:100BF00081E090E002C080E090E00F900F90DF91E4
:100C0000CF911F910F91FF90EF90DF90CF900895BB
:100C1000811103C080910001089581E00895EF9251
:100C2000FF920F931F93CF93DF9300D000D0CDB7E7
:100C3000DEB78111C2C083EC99E00197F1F700C0E3
:100C4000000084B1806184B985B1806185B984B1C7
:100C5000806884B985B18F7785B984B1806284B9A1
:100C60001AE007C061E070E0CE0101960E94E50441
:100C700011501111F7CF40E050E0BA0180E00E941E
:100C80002C05813009F07FC04AEA51E060E070E055
:100C900088E00E942C05813009F03FC064E070E0DC
:100CA000CE0101960E94E5048B81813009F06DC070
:100CB0008C818A3AA1F0F12C75C040E050E060E0F0
:100CC00070E489EA0E942C05882371F089EF90E096
:100CD0000197F1F700C000000150110902C008EEB1
:100CE00013E00115110549F7012B09F450C040E04C
:100CF00050E0BA018AE30E942C0581114AC064E0E9
:100D000070E0CE0101960E94E504898186FF43C010
:100D10000F2EF8E1FF2EF02D45C040E050E0BA0163
:100D200089EA0E942C05823040F40F2EF9EAEF2E5A
:100D3000F02D6894FF24F3F804C0EE24E394FF241C
:100D4000F39408EE13E010C040E050E0BA018E2D9D
:100D50000E942C05882359F089EF90E00197F1F764
:100D600000C00000015011090115110569F7012BA0
:100D7000B1F040E052E060E070E080E10E942C05BC
:100D800081110FC00FC0F12C0DC0F12C0BC0F12C44
:100D900009C0F12C07C06894FF24F3F803C0F12CBC
:100DA00001C0F12CF092D80211E0F11010E0109384
:100DB00000010E94CB04812F01C083E00F900F90AF
:100DC0000F900F90DF91CF911F910F91FF90EF90B7
:100DD0000895BF92CF92DF92EF92FF920F931F93ED
:100DE000CF93DF93EB0169017A010E94080680FD31
:100DF0003BC08091D80284FD09C00B2EB9E0CC0C19
:100E0000DD1CEE1CFF1CBA95D1F7B02D0230110588
:100E100028F00F2EF2E1BF2EF02D04C00F2EF1E1CD
:100E2000BF2EF02DB701A6018B2D0E942C0581113C
:100E300014C060E072E0CE010E94C905892B21F048
:100E4000DE5F01501109A9F782E1B81206C040E047
:100E500050E0BA018CE00E942C050E94CB0481E096
:100E6000012B19F480E001C083E0DF91CF911F9145
:100E70000F91FF90EF90DF90CF90BF900895CF92A9
:100E8000DF92EF92FF920F931F93CF93DF93EB01CB
:100E900069017A010E94080680FD4BC08091D8024A
:100EA00084FD09C00B2EB9E0CC0CDD1CEE1CFF1C30
:100EB000BA95D1F7B02D0130110571F4B701A60133
:100EC00088E10E942C0581112DC06EEFCE010E9499
:100ED0008D05892B11F526C08C7031F0A80160E0DA
:100EE00070E087E90E942C05B701A60189E10E9404
:100EF0002C05811117C06CEFCE010E948D05892B46
:100F000021F0DE5F01501109B1F76DEF80E090E054
:100F10000E948D05892B21F005C000E010E002C081
:100F200001E010E00E94CB0481E0012B19F480E085
:100F300001C083E0DF91CF911F910F91FF90EF905F
:100F4000DF90CF900895EF92FF921F93CF93DF939E
:100F5000CDB7DEB760970FB6F894DEBF0FBECDBF3A
:100F6000162F7A010E94080680FD9CC0113061F0A6
:100F700020F0133009F480C08AC00E941705892B25
:100F800009F087C011E08AC040E050E0BA0189E072
:100F90000E942C0581117FC060E170E0CE010196B6
:100FA0000E94C905892B09F478C0898182958695AC
:100FB00086958370813031F58A85298530E0322F1E
:100FC0002227280F311D88858F7390E0A0E0B0E0C4
:100FD000DC0199278827820F931FA11DB11D01965F
:100FE000A11DB11D072E7AE0880F991FAA1FBB1FF4
:100FF0007A95D1F7702DF70180839183A283B38313
:1010000010E04CC02E819B85991F9927991F8A85D6
:101010002F70290F8370880F280F42E0420F298517
:10102000888590E0880F991F880F991F2295269533
:1010300026952370BC01620F711D2F81237030E053
:10104000C901982F8827990F990F860F971F01962E
:10105000A0E0B0E0242F30E02950310904C0880F0F
:10106000991FAA1FBB1F2A95D2F7F701808391838E
:10107000A283B38310E012C080E890E0A0E0B0E06B
:10108000F70180839183A283B38310E007C014E04B
:1010900005C010E003C011E001C011E00E94CB04C4
:1010A000812F01C083E060960FB6F894DEBF0FBEBB
:1010B000CDBFDF91CF911F91FF90EF900895FC017C
:1010C000218130E0322F22278081A901482BCA01DB
:1010D0000895FC016381862F90E0A0E0B0E0BA2F74
:1010E000A92F982F88272281822BBA2FA92F982FDA
:1010F00088272181822BBA2FA92F982F882720811A
:10110000BC01CD01622B0895FC01608371830895B9
:10111000FC0140835183628373830895813848F0D2
:10112000803A50F0803E58F08D3F60F080E090E0D3
:10113000089580E090E0089581E090E0089580E0D7
:1011400090E0089581E090E00895803458F08F3762
:1011500060F0803810F08D3F58F0882361F080E017
:1011600090E0089580E090E0089581E090E0089597
:1011700081E090E0089581E090E00895CF92DF92C1
:10118000EF92FF92FC019A01AB0122503109410913
:101190005109C488D588E688F78882E0C81AD10842
:1011A000E108F1082C153D054E055F0568F4C0A463
:1011B000D1A4E2A4F3A4A285B3850E940A236C0DF6
:1011C0007D1D8E1D9F1D03C060E070E0CB01FF9070
:1011D000EF90DF90CF900895CF92DF92EF92FF9241
:1011E0000F931F93CF93DF938C01EB01CB014A96B2
:1011F0000E945F086C01E12CF12CF80180818330A2
:1012000069F4CE0144960E945F08A0E0B0E0DC01E2
:1012100099278827C82AD92AEA2AFB2AC701B601B2
:10122000DF91CF911F910F91FF90EF90DF90CF90C2
:101230000895CF92DF92EF92FF920F931F93CF9377
:10124000DF938C01EB0169017A01B901CE014A9665
:101250000E948408F8018081833039F4B70188271F
:101260009927CE0144960E948408DF91CF911F9167
:101270000F91FF90EF90DF90CF900895CF93DF9381
:10128000EC01A881B981109731F1FD019F012F5F19
:101290003F4F9081913218F0F9019A33B9F79A33A0
:1012A000E9F44C9180ED840F8A3040F412962A17AD
:1012B0003B0739F450E04053510905C041E050E08C
:1012C00002C041E050E0141615065CF03983288313
:1012D000842F952F08C08FEF9FEF05C080E090E02E
:1012E00002C08FEF9FEFDF91CF910895CF92DF92F1
:1012F000EF92FF92CF93DF936B017C01C0E0D0E0CF
:1013000021C020E030E543EC57E4C701B6010E945C
:101310005722882364F020E030E543EC57E4C7010E
:10132000B6010E94FD206B017C0125960BC020E0D8
:1013300030E040E251E4C701B6010E94FD206B019C
:101340007C01219620E030E040E251E4C701B60183
:101350000E9457228823ACF621C02CEA35EC47E2E4
:1013600057E3C701B6010E94F820882364F420E007
:1013700030E543EC57E4C701B6010E945C226B01E3
:101380007C0125970BC020E030E040E251E4C7012A
:10139000B6010E945C226B017C01219720E030E0C5
:1013A00040E85FE3C701B6010E94F8208823ACF251
:1013B000CE01DF91CF91FF90EF90DF90CF90089515
:1013C000CF93DF93EC0160E070E080E89FE312C010
:1013D000C530D10544F020E030E543EC57E40E94ED
:1013E0005C22259707C020E030E040E251E40E94F3
:1013F0005C2221971C161D065CF313C0CC3F2FEF17
:10140000D20744F420E030E543EC57E40E94FD208D
:10141000259607C020E030E040E251E40E94FD2024
:101420002196DD235CF3DF91CF9108952F923F92B7
:101430004F925F926F927F928F929F92AF92BF92E4
:10144000CF92DF92EF92FF920F931F93CF93DF9390
:10145000CDB7DEB728970FB6F894DEBF0FBECDBF6D
:101460007C014A015B016901302E9A01AB01C50183
:10147000B4010E94C922811144C1DD202CF40F2E39
:10148000F6E0CF2ED12CF02D20E030E0A901C501EF
:10149000B4010E94F820882374F4A501940160E04F
:1014A00070E0CB010E948B204B015C010F2EFDE20E
:1014B0002F2EF02D04C00F2EFBE22F2EF02D240135
:1014C0003501E89477F82FEF3FEF4FE75FE7C3016F
:1014D000B2010E94C92281110BC02FEF3FEF4FE7ED
:1014E0005FE7C301B2010E94F82018160CF46FC028
:1014F00026E6321227C0882799278C199D090E9459
:10150000E00920E030E040E05FE30E945C229B01C4
:10151000AC01C501B4010E948C204B015C010E940A
:1015200076098C01992314F400E010E0C601800FC5
:10153000911F039680970CF053C018861F821E825D
:101540001D8269C020E030E0A901C501B4010E94FC
:10155000F820882309F44BC0C501B4010E94760924
:101560008C199D090E94E00920E030E040E05FE333
:101570000E945C229B01AC01C501B4010E948C2039
:101580004B015C010E9476099E838D838436910510
:10159000ACF5C60107968097C4F58D819E818D3983
:1015A0009F4F24F4EDE9FFEFFE83ED838D819E8153
:1015B0000E94E0099B01AC01C501B4010E94FD201D
:1015C0004B015C0118861F8200E010E024C022EB72
:1015D00032E038872F8300E010E01E821D821BC09E
:1015E00086EB92E098878F831E821D8214C0188636
:1015F0001F8200E010E01E821D820DC0A6EBB2E04B
:10160000B887AF8300E010E006C0E6EBF2E0F887B1
:10161000EF8300E010E02F813885232B09F078C09C
:101620003DE2231207C0D7012C92F70131967F01CA
:1016300001C07C010F3FFFEF1F0731F48EE2D7019D
:101640008C93F70131967F01C8010E94E0096983FC
:101650007A838B839C839B01AC01C501B4010E94FA
:10166000FD200E946F212B013C01072E000C880BEE
:10167000990B0E94A72129813A814B815C810E94AC
:101680005C229B01AC01C501B4010E948B204B017F
:101690005C01C701019620E3240DD7012C93015072
:1016A0001109222733272C193D09021713070CF6BD
:1016B000B6E63B1661F1F70131822D813E8133237D
:1016C0005CF43195219531093E832D8333968DE26B
:1016D000D70112968C9306C0F70133968BE2D7019F
:1016E00012968C938D819E816AE070E00E94CE22DA
:1016F000605D60837F01B2E0EB0EF11C805D818351
:1017000007C0E9EBF2E0F887EF83212C01C07C01F0
:101710002F813885232BD1F0222029F0D7012C925C
:10172000F70131967F01F7013196AF81B8858C9131
:10173000D7018C93AF81B88511968C9111977F0159
:101740001196B887AF838111EECF01C0F7011082E7
:1017500028960FB6F894DEBF0FBECDBFDF91CF91B4
:101760001F910F91FF90EF90DF90CF90BF90AF90BF
:101770009F908F907F906F905F904F903F902F90B1
:1017800008950F931F93CF93DF93EC018B01892B67
:10179000A9F0E881F981309799F08081882391F050
:1017A0002A813B81868197812817390769F48181D5
:1017B0000E94080680FF0AC089E009C089E007C0CE
:1017C00089E005C089E003C089E001C080E08111A3
:1017D00003C02881398102C020E030E0F801318364
:1017E0002083DF91CF911F910F9108958F929F9247
:1017F000AF92BF92EF92FF920F931F93CF93DF931D
:10180000FC0124812223D1F1EC017C01F0E3EF0EF5
:10181000F11C2CA53DA54EA55FA501E010E0B70188
:1018200089810E943F0781112BC01C820CA51DA538
:101830002EA53FA588A199A1AAA1BBA14801590144
:10184000881A990AAA0ABB0A888D998DAA8DBB8D20
:1018500088169906AA06BB06A8F46B816230A1F42B
:10186000A9019801280F391F4A1F5B1F01E010E0F2
:10187000B70189810E943F0780E007C080E005C072
:1018800081E003C080E001C080E0DF91CF911F9133
:101890000F91FF90EF90BF90AF909F908F90089521
:1018A0008F929F92AF92BF92FF920F931F93CF930D
:1018B000DF93EC014A015B018CA59DA5AEA5BFA5F8
:1018C00084179507A607B707E9F0CE010E94F60B2B
:1018D000F82E811118C001E010E0A5019401BE01AD
:1018E000605D7F4F89810E94E906882331F0FF24E3
:1018F000F39488248A94982C54018CA69DA6AEA6B5
:10190000BFA601C0F12C8F2DDF91CF911F910F91B8
:10191000FF90BF90AF909F908F900895EF92FF92AD
:101920000F931F93CF93DF93EC011C828FEF9FEFF8
:10193000DC018CA79DA7AEA7BFA7CE010E94500CCB
:10194000811175C0CE01825D9D4F0E945F087C01B0
:1019500088A98B3E29F0893E19F0883E09F05FC0C6
:1019600025E5E2162AEAF20661F448E050E06DEB64
:1019700072E0CE018E579F4F0E94D723892B09F426
:1019800059C0CE01CB960E945F082DAD8C0101504D
:101990001109082319230115110509F040C081150B
:1019A00032E09307E0F181309240C8F52223B9F18B
:1019B000822F90E09C012150310982239323892BAF
:1019C00071F5CE01CE960E945F08892B41F1FE0190
:1019D000E05CFF4F808190E00197029700F5CE0117
:1019E0008F5B9F4F0E945F08892BC9F0CE018D5BF2
:1019F0009F4F0E945F088038910550F4CE01805BB4
:101A00009F4F0E946908611571058140910538F06A
:101A1000CE018A5B9F4F0E945F08892B81F435E5D8
:101A2000E3163AEAF30649F402E010E008C004E0E5
:101A300010E005C000E010E002C003E010E0C801C3
:101A4000DF91CF911F910F91FF90EF900895CF926A
:101A5000DF92EF92FF920F931F93CF93DF93CDB757
:101A6000DEB760970FB6F894DEBF0FBECDBF6C0136
:101A70007B0140E050E0BA010E948E0C823091055B
:101A800059F108F05CC0E114F10409F458C000E019
:101A900010E024C0C80182959295907F9827807F9E
:101AA00098278A539E4F9601205D3F4F820F931FC8
:101AB0000E946908F801EE0FFF1FEE0FFF1F21E0E3
:101AC00030E02C0F3D1FE20FF31F60837183828390
:101AD00093830F5F1F4F02C000E010E00430110538
:101AE000C8F2E114F10421F087010150110902C08C
:101AF00000E010E0F801EE0FFF1FEE0FFF1F81E086
:101B000090E08C0F9D1FE80FF91F40815181628189
:101B10007381411551056105710521F0C6010E94CF
:101B20008E0C02C083E090E0E114F10441F48230B5
:101B3000910528F00F5F1F4F04301105D8F2609611
:101B40000FB6F894DEBF0FBECDBFDF91CF911F91CE
:101B50000F91FF90EF90DF90CF9008952F923F92DA
:101B60004F925F926F927F928F929F92AF92BF92AD
:101B7000CF92DF92EF92FF920F931F93CF93DF9359
:101B8000CDB7DEB72E970FB6F894DEBF0FBECDBF30
:101B90008B01F42EDB011D921C920E943E099923B9
:101BA0000CF41EC2880F991FFC01E552FD4F2081E5
:101BB00031813E872D872115310509F413C2D801E3
:101BC0002D933C931F2D1E7FF9018081882361F0A6
:101BD00081810E94080680FD07C0112309F404C218
:101BE00082FD04C280E025C2AD85BE851C9211969F
:101BF0008C910E940F0680FDFBC1112311F082FD24
:101C0000F9C160E070E08D859E850E94270D8430CB
:101C1000910509F4F1C1029708F0F0C1ED85FE8548
:101C200044A455A466A477A4CF01CB960E945F0874
:101C30008115924009F0E4C18D859E858A5B9F4F96
:101C40000E945F084C01A12CB12C81149104A104C5
:101C5000B10441F48D859E858C5A9F4F0E9469087E
:101C60004B015C01AD85BE8558968D929D92AD92DB
:101C7000BC925B97FD01E05CFF4FA081ED85FE8586
:101C8000A3838FEF8A0F823008F0BCC1B0E0A501BA
:101C900094010E940A236D837E838F83988705AD0C
:101CA00010E0138702870115110509F4ADC1C801C1
:101CB000019780239123892B09F0A8C1CF018F5B65
:101CC0009F4F0E945F081C01AD85BE8519969C93AD
:101CD0008E9318978F709927892B09F099C1CD01A0
:101CE0008D5B9F4F0E945F086C01E12CF12CC114A9
:101CF000D104E104F10441F48D859E85805B9F4F02
:101D00000E9469086B017C018D859E85CE960E949C
:101D10005F08009709F47EC19C0140E050E02987EC
:101D20003A874B875C878D819E81AF81B885820F12
:101D3000931FA41FB51F9101329522952F70232761
:101D40003F702327AC01BD01420F531F611D711D60
:101D500049835A836B837C83C416D506E606F7064F
:101D600008F45AC1C701B60129813A814B815C81CF
:101D7000621B730B840B950B980140E050E00E94AE
:101D8000E222DA01C901211531054105510509F4A5
:101D900045C1263F6FEF360746076FE0560718F03C
:101DA00000E010E002C003E010E0863F7FEF9707FD
:101DB000A105B10510F402E010E0863F9F40A105A7
:101DC000B10510F401E010E00115110509F428C176
:101DD00069017A01F2E0CF0ED11CE11CF11CAD8546
:101DE000BE855496CD92DD92ED92FC925797FD01FF
:101DF000448E558E668E778E89859A85AB85BC8597
:101E0000840D951DA61DB71D80A391A3A2A3B3A306
:101E100049815A816B817C81440D551D661D771D5A
:101E200040A751A762A773A70330110511F5CF0191
:101E3000865A9F4F0E945F08892B09F0F3C0232820
:101E400009F0F2C08D859E85845A9F4F0E946908D3
:101E5000AD85BE8594966D937D938D939C93979756
:101E6000CC0CDD1CEE1CFF1CCC0CDD1CEE1CFF1C86
:101E70002EC0232809F4DAC02D813E814F81588578
:101E8000820F931FA41FB51FED85FE8584A395A324
:101E9000A6A3B7A30230110529F4CC0CDD1CEE1C5F
:101EA000FF1C15C0A3E0B0E0A70196010E940A2321
:101EB000DC01CB01B695A79597958795F1E0CF22E8
:101EC000DD24EE24FF24C80ED91EEA1EFB1E2FEFD0
:101ED000C20E21E0D21EE11CF11C0B2EB9E0F694DB
:101EE000E794D794C794BA95D1F7B02D8C149D047C
:101EF000AE04BF0408F49CC08FEF9FEFDC01ED85BA
:101F0000FE85808B918BA28BB38B84879587A68768
:101F1000B78780E885830330110509F04FC0CF01F2
:101F2000805A9F4F0E945F08019709F047C0B30194
:101F3000A2014F5F5F4F6F4F7F4F8D859E850E943F
:101F4000500C81113BC0AD85BE8515961C9215972E
:101F5000CD01825D9D4F0E945F0885359A4A71F5DB
:101F60008D859E85C0960E946908623572458146BE
:101F7000914421F58D859E858C5E9D4F0E94690858
:101F80006237724781449146C9F48D859E85885E8B
:101F90009D4F0E946908AD85BE8550966D937D93D7
:101FA0008D939C935397CD01845E9D4F0E94690849
:101FB000ED85FE856487758786879787AD85BE85A5
:101FC0000C938091D9029091DA0201969093DA02F3
:101FD0008093D90217969C938E93169780E029C020
:101FE0008BE027C08CE025C080E023C08AE021C0C0
:101FF00083E01FC08AE01DC081E01BC08DE019C0D6
:102000008DE017C08DE015C08DE013C08DE011C0CC
:102010008DE00FC08DE00DC08DE00BC08DE009C0DC
:102020008DE007C08DE005C08DE003C08DE001C0EC
:102030008DE02E960FB6F894DEBF0FBECDBFDF91B8
:10204000CF911F910F91FF90EF90DF90CF90BF90B5
:10205000AF909F908F907F906F905F904F903F9048
:102060002F9008952F923F924F925F926F927F929E
:102070008F929F92AF92BF92CF92DF92EF92FF9298
:102080000F931F93CF93DF9300D000D0CDB7DEB76F
:10209000423051056105710508F4F1C0FC01C488A6
:1020A000D588E688F7884C155D056E057F0508F034
:1020B000E8C0280139016A017B019C838B83808100
:1020C000823009F475C0833009F499C0813009F079
:1020D000DAC05A01B694A794A40EB51E40A151A12E
:1020E00062A173A1C501892F99278695480F591FB1
:1020F000611D711DCF010E94500C182F8111C4C0A9
:102100002B813C81205D3F4F3A83298315013FEFAE
:10211000231A330A81E0B822E981FA81EA0DFB1D16
:102120004601570191E089229924AA24BB24C0FECC
:1021300008C0208130E1439EC00111242F70822B02
:1021400001C0842D808381E0EB81FC81848340A1E8
:1021500051A162A173A1C101892F99278695480FCA
:10216000591F611D711DCF010E94500C182F811144
:102170008BC0F1E03F22E981FA81E20DF31D89284D
:102180008A288B2849F0689413F8769467945794BA
:1021900047941694D1F706C09081907F852D8F705B
:1021A000492E482A408281E0EB81FC8184836CC007
:1021B000EB81FC8140A151A162A173A1BB27AF2D8E
:1021C0009E2D8D2D480F591F6A1F7B1FCF010E9426
:1021D000500C182F811158C02B813C81205D3F4F3E
:1021E000CC0CDD1CC6018E7F9170B201820F931F53
:1021F0000E94840881E0EB81FC81848345C0EB81EF
:10220000FC8140A151A162A173A1D701C6016894CC
:1022100016F8B695A795979587951694D1F7480F18
:10222000591F6A1F7B1FCF010E94500C182F81116C
:102230002BC0FFE07F228B819C81C096CC0CDD1CE3
:10224000CC0CDD1C2CEFC22221E0D222C80ED91EFC
:10225000C6010E946908DC01CB0188279927AA27BB
:10226000B07FB301A201482B592B6A2B7B2BC601EF
:102270000E94880881E0EB81FC81848305C012E024
:1022800003C012E001C012E0812F0F900F900F9059
:102290000F90DF91CF911F910F91FF90EF90DF9002
:1022A000CF90BF90AF909F908F907F906F905F90F6
:1022B0004F903F902F900895AF92BF92CF92DF92B0
:1022C000EF92FF920F931F93CF93DF93FC01C08196
:1022D000D181423051056105710508F4A6C08C8991
:1022E0009D89AE89BF89481759076A077B0708F09F
:1022F000A1C06A017B018881823009F450C083301B
:1023000009F46DC0813009F09AC08A0116950795CD
:10231000040F151F48A159A16AA17BA1C801892FEB
:1023200099278695480F591F611D711DCE010E9486
:10233000500C811189C05801FFEFAF1ABF0A11700C
:10234000FE01E00FF11F00A910E048A159A16AA108
:102350007BA1C501892F99278695480F591F611DBB
:10236000711DCE010E94500C811172C081E0B82213
:10237000CA0DDB1D68A970E0762F6627602B712BD4
:10238000C0FE09C0729562956F7067277F706727DE
:1023900080E090E068C07F7080E090E064C048A179
:1023A00059A16AA17BA1BB27AF2D9E2D8D2D480F72
:1023B000591F6A1F7B1FCE010E94500C81114CC017
:1023C000CE01C096A601440F551F4E7F5170840F59
:1023D000951F0E945F08BC0180E090E044C048A1C6
:1023E00059A16AA17BA1D701C601689416F8B695D8
:1023F000A795979587951694D1F7480F591F6A1F8F
:102400007B1FCE010E94500C81112AC0E096A601CC
:10241000440F551F440F551FCA018C7F91708C0FBC
:102420009D1F0E9469089F701EC061E070E080E0FF
:1024300090E019C061E070E080E090E014C061E0DD
:1024400070E080E090E00FC06FEF7FEFCB010BC03A
:102450006FEF7FEFCB0107C06FEF7FEFCB0103C0C2
:102460006FEF7FEFCB01DF91CF911F910F91FF9025
:10247000EF90DF90CF90BF90AF9008954F925F9212
:102480006F927F928F929F92AF92BF92CF92DF9284
:10249000EF92FF920F931F93CF93DF93EC016A01AA
:1024A0007B01088119814115510580E2680771059A
:1024B00008F0ACC0DB01CA018F719927AA27BB279E
:1024C000892B8A2B8B2B09F0A3C04E875F87688BE3
:1024D000798B8E809F80A884B98481149104A10493
:1024E000B10441F4F8018081833020F084A095A0EC
:1024F000A6A0B7A081149104A104B104F1F4F801DD
:1025000080859185A0E0B0E0B701A601689414F839
:1025100076956795579547951694D1F748175907BB
:102520006A077B0708F076C084A195A1A6A1B7A190
:102530008E8B9F8BA88FB98F40C0F8014284538443
:10254000612C712C032E39E0440C551C661C771C41
:102550003A95D1F7302D23C0B501A401CE010E94D8
:102560005C114B015C016F3F7F4F8F4F9F4F09F410
:1025700053C082E088169104A104B10408F44EC04F
:10258000F80184899589A689B78988169906AA06CB
:10259000BB0608F045C0C418D508E608F708C414FF
:1025A000D504E604F704C0F6B501A401C8010E94F1
:1025B000BE086E8B7F8B888F998F8A8A9B8AAC8AA4
:1025C000BD8A8E899F89A88DB98D0097A105B10517
:1025D00049F1B701A601032E39E076956795579525
:1025E00047953A95D1F7302D840F951FA61FB71F39
:1025F0008E8B9F8BA88FB98F005D1F4FF1E0DF227C
:10260000C00ED11EDB8ECA8E80E00DC082E00BC0F2
:1026100082E009C082E007C081E005C082E003C01B
:1026200082E001C082E0DF91CF911F910F91FF9076
:10263000EF90DF90CF90BF90AF909F908F907F9062
:102640006F905F904F9008954F925F926F927F923C
:102650008F929F92AF92BF92CF92DF92EF92FF92B2
:102660000F931F93CF93DF938C012A013B01FC0151
:10267000C081D181411551056105710599F48C84A2
:102680009D84AE84BF8481149104A104B10431F10E
:102690008C899D89AE89BF8988169906AA06BB06D2
:1026A00010F525C00E945C1162307105810591050D
:1026B00008F4F9C06F3FFFEF7F078F079F0709F40A
:1026C00003C1CC88DD88EE88FF886C157D058E05FA
:1026D0009F0508F4F9C05301420109C0812C912CD7
:1026E0005401839404C0812C912C540183946889F3
:1026F00079898A899B89611571058105910509F49C
:10270000E3C084149504A604B70409F041C0750120
:1027100064012FEFC21AD20AE20AF20A8C899D895B
:10272000AE89BF89C816D906EA06FB0628F0C12C77
:10273000D12C76016894C1F8B701A601C8010E94A6
:102740005C11613071058105910509F4BDC06F3FD1
:10275000EFEF7E078E079E0709F4B6C0672B682B44
:10276000692B19F18C859D85AE85BF8582309105D9
:10277000A105B10588F04C895D896E897F89841730
:102780009507A607B70760F0C12CD12C76010DC0C4
:10279000C12CD12C760109C0C12CD12C760105C0E9
:1027A0004C015D01C12CD12C7601C114D104E1048E
:1027B000F104C9F575016401FFEFCF1ADF0AEF0AD2
:1027C000FF0A8C899D89AE89BF89C816D906EA0699
:1027D000FB0660F022E082169104A104B10408F423
:1027E00067C0C12CD12C76016894C1F8B701A6014D
:1027F000C8010E945C11611571058105910599F070
:10280000613071058105910509F45EC06F3FEFEFFE
:102810007E078E079E0709F457C0C814D904EA043E
:10282000FB0451F649C00FEF1FEF9801B701A60155
:10283000CE010E94321081110CC041145104610478
:10284000710439F097018601B301A201CE010E9403
:102850003210811122C0CC86DD86EE86FF86488943
:1028600059896A897B898C899D89AE89BF8902973C
:10287000A109B10984179507A607B70740F0415091
:10288000510961097109488B598B6A8B7B8B8D814A
:1028900081608D83C701B60117C0813089F46FEF65
:1028A0007FEFCB0111C061E070E080E090E00CC0F0
:1028B00060E070E0CB0108C060E070E0CB0104C0D4
:1028C00061E070E080E090E0DF91CF911F910F9187
:1028D000FF90EF90DF90CF90BF90AF909F908F9040
:1028E0007F906F905F904F9008954F925F926F929C
:1028F0007F92AF92BF92CF92DF92EF92FF920F93AF
:102900001F93CF93DF935C016A017B01B901A8019A
:10291000FC01C081D181F2E0CF16D104E104F104C1
:1029200008F460C08C899D89AE89BF89C816D90614
:10293000EA06FB0608F058C0012B022B032B41F0DE
:102940000FEF1FEF9801CE010E943210811153C08A
:10295000B701A601C5010E945C112B013C01611564
:1029600071058105910509F441C06130710581054A
:102970009105F1F18FEF4816580668067806D1F1F7
:1029800000E010E09801B701A601CE010E943210CC
:10299000811131C088899989AA89BB894C895D894F
:1029A0006E897F896A017B01E2E0CE1AD108E108D5
:1029B000F1088C159D05AE05BF0550F40196A11DCB
:1029C000B11D888B998BAA8BBB8B8D8181608D8388
:1029D00073016201441655066606770608F4B8CFFF
:1029E00080E009C082E007C082E005C080E003C04B
:1029F00082E001C081E0DF91CF911F910F91FF90A4
:102A0000EF90DF90CF90BF90AF907F906F905F90EE
:102A10004F9008958F929F92AF92BF92CF92DF9284
:102A2000EF92FF920F931F93CF93DF93EC016A0114
:102A30007B010E94F60B811138C0B701A601CE01BF
:102A40000E94BE084B015C016CA77DA78EA79FA7C3
:102A50006E0120E3C20ED11C80E092E0F6019C01E1
:102A6000119221503040E1F7E12CF12C03C03FEFEF
:102A7000E31AF30A8A859B85E816F90670F401E0EB
:102A800010E0A50194012E0D3F1D411D511DB60101
:102A900089810E943F07882351F32A853B8581E085
:102AA000E216F30619F480E001C081E0DF91CF91D6
:102AB0001F910F91FF90EF90DF90CF90BF90AF905C
:102AC0009F908F9008954F925F926F927F92AF92F6
:102AD000BF92CF92DF92EF92FF920F931F93CF930B
:102AE000DF93FC01C081D181C684D784E088F1885E
:102AF00080E2C80ED11CE11CF11CC114D10480E29B
:102B0000E806F10420F0168A178A108E118E868945
:102B10009789A08DB18D0097A105B10509F4B3C0C7
:102B20008B015F01B701A601517066277727452BFE
:102B3000462B472B09F098C00196A11DB11D868B2D
:102B4000978BA08FB18F428953896489758941150C
:102B5000510561057105D1F488859985A0E0B0E043
:102B6000B701A601689414F876956795579547952F
:102B70001694D1F7481759076A077B0708F474C001
:102B8000168A178A108E118E84E08AC08A859B85EA
:102B900001972C01612C712CD701C601072E79E019
:102BA000B695A795979587957A95D1F7702D84213D
:102BB0009521A621B721892B8A2B8B2B09F054C094
:102BC000CF010E945C112B013C016230710581052F
:102BD000910508F45AC08FEF481658066806780623
:102BE00009F455C08C899D89AE89BF89481659065C
:102BF0006A067B0650F1012B39F4F501168A178A13
:102C0000108E118E84E04CC0F5014289538964898D
:102C10007589C5010E9424132B013C0161157105C2
:102C200081059105B1F1613071058105910599F139
:102C30008FEF481658066806780679F1B301A201AD
:102C4000CE010E940A1581112AC0F501428A538AD9
:102C5000648A758AB301A201CE010E94BE08F50103
:102C6000668B778B808F918FF501C686D786E08A39
:102C7000F18AE096F1E0DF22CC0EDD1EF501D38E65
:102C8000C28E80E00DC084E00BC082E009C081E00C
:102C900007C087E005C082E003C081E001C081E099
:102CA000DF91CF911F910F91FF90EF90DF90CF9028
:102CB000BF90AF907F906F905F904F900895EF928C
:102CC000FF921F93CF93DF93EC01E880F98040E0FF
:102CD00050E0BA010E943E1281112BC04E895F89DB
:102CE000688D798DC7010E94500C182F81111DC06D
:102CF000EA8DFB8D80818823C9F083858F738C8357
:102D0000838583FD0AC04BE050E0BE01645E7F4FC7
:102D1000CF010E94D723892B59F060E070E0CE01EB
:102D20000E9463158823D1F204C003C084E001C06F
:102D3000812FDF91CF911F91FF90EF900895CF9257
:102D4000DF92EF92FF920F931F93CF93DF93EC01EB
:102D50006B01E880F98040E050E0BA010E943E1229
:102D6000811121C000E010E04E895F89688D798D66
:102D7000C7010E94500C811116C0EA8DFB8D908115
:102D8000953E11F0911106C00F5F1F4F0C151D05E8
:102D900019F409C000E010E061E070E0CE010E948B
:102DA0006315882309F3843009F487E0DF91CF911C
:102DB0001F910F91FF90EF90DF90CF90089526E440
:102DC000FC0111922A95E9F7FC0171836083089553
:102DD0003F924F925F926F927F928F929F92AF92AB
:102DE000BF92CF92DF92EF92FF920F931F93CF93F8
:102DF000DF933C012B01FB01C080D1805C01FCE131
:102E0000AF0EB11C4BE050E060E270E0C5010E94E3
:102E1000ED23E12CF12C00E010E06894882483F885
:102E2000912CE8012196F601E00FF11F308080E23D
:102E3000831508F064C09FE2391629F0ECE53E12D4
:102E40000BC001C02196F601EC0FFD1F80818F326F
:102E5000C9F38C35B9F353C0FEE23F1619F0E814FC
:102E6000F90498F08BE08816910409F464C09EE29E
:102E7000391263C08E016894EE24E3F8F12C0F2E12
:102E8000FBE08F2E912CF02DCCCF832D0E948E084D
:102E9000892BF1F00E5F1F4FCC0DDD1DC8818C2FEB
:102EA0000E94A508892B09F44AC0C4010197E816BD
:102EB000F90608F046C0F501EE0DFF1D3082F7015E
:102EC0003196EA0DFB1D82E0E80EF11CC083A9CF0C
:102ED000632D70E086EC92E00E94F423892B99F533
:102EE0008FE9830D8A3110F490EE390EF501EE0D65
:102EF000FF1D3082F70131967F018E0192CFCC0DFC
:102F0000DD1DF201D183C083EF28F9F0F301848D38
:102F1000853E11F485E0848FF0E2F31528F4888172
:102F2000813220F484E003C084E001C080E0F3013A
:102F300087A380E00BC086E009C086E007C086E07A
:102F400005C086E003C086E001C086E0DF91CF9136
:102F50001F910F91FF90EF90DF90CF90BF90AF90B7
:102F60009F908F907F906F905F904F903F900895CB
:102F7000EF92FF920F931F93CF93DF9300D0CDB7C3
:102F8000DEB78C017A836983DC01ED90FC9003C08D
:102F90003196FA83E983E981FA8180818F32C1F326
:102FA0008C35B1F3D80116961D921D921D921C927C
:102FB00019978081803250F480E897968C9340E096
:102FC00050E0BA01C8010E943E1232C0BE016F5FDC
:102FD0007F4FC8010E94E81681112AC0C8010E94D3
:102FE0005F16F80197A1882329F0843009F592FF34
:102FF0001CC01EC092FD1CC0D801848184FF17C074
:103000001E968D919D910D90BC91A02D9170B70150
:10301000605D7F4F680F791FC7010E94EC08F801BF
:103020006683778380879187D1CF85E001C085E073
:103030000F900F90DF91CF911F910F91FF90EF9024
:1030400008950F931F93CF93DF93EC0108811981AB
:1030500061E070E00E949F1681111CC04E895F895B
:10306000688D798DC8010E94500C811113C0EA8DC2
:10307000FB8D90E2DF011D929A95E9F7FE017C96A7
:10308000AA8DBB8D9BE001900D929A95E1F791E09E
:10309000F8019483DF91CF911F910F910895CF9202
:1030A000DF92FF920F931F93CF93DF93EC010E9467
:1030B000F60BF82E81115CC08881833009F04EC078
:1030C0008D81813009F04AC080E092E06E0120E3FA
:1030D000C20ED11CF6019C01119221503040E1F743
:1030E00065E57AEACE01825D9D4F0E94840842E543
:1030F00052E561E671E4C6010E94880842E752E7A2
:1031000061E471E6CE018C5E9D4F0E94880848897B
:1031100059896A897B89CE01885E9D4F0E94880803
:103120004C855D856E857F85CE01845E9D4F0E94B6
:1031300088088C8D9D8DAE8DBF8D9C01AD012F5F5C
:103140003F4F4F4F5F4F2CA73DA74EA75FA701E012
:1031500010E0B60189810E943F071D8240E050E0E7
:1031600060E089810E94A307882311F0FF24F39473
:103170008F2DDF91CF911F910F91FF90DF90CF9016
:1031800008951F93CF93DF9300D000D000D0CDB728
:10319000DEB79C838B837E836D83142F7A83698350
:1031A000CE0101960E943E0999236CF1FC01EE0FBD
:1031B000FF1FE552FD4FA081B181109741F0FC0146
:1031C000EE0FFF1FE552FD4F118210821C92EB8122
:1031D000FC81309769F08183EB81FC811082880F3C
:1031E000991FFC01E552FD4F8B819C819183808367
:1031F000112359F040E0BE016D5F7F4FCE0105966F
:103200000E94AE0D03C08BE001C080E026960FB691
:10321000F894DEBF0FBECDBFDF91CF911F9108950F
:103220002F923F924F925F926F927F928F929F92D6
:10323000AF92BF92CF92DF92FF920F931F93CF93E3
:10324000DF93CDB7DEB7E0970FB6F894DEBF0FBEC1
:10325000CDBF7CA76BA7009709F4A9C1142F6C01FF
:10326000242F2F73522E422FBE01675D7F4FCE0158
:103270008B960E94AE0DF82E811192C189A59AA558
:103280009A8389836BA57CA5CE0101960E94B8170D
:10329000F82E811107C088A5882324F40F2EF6E0AC
:1032A000FF2EF02D812F8C7109F482C0FF2061F078
:1032B00034E0F31205C0CE0101960E942118F82EC9
:1032C000852D8860582E0EC08D81817119F412FDF4
:1032D00006C008C00F2EF7E0FF2EF02D03C0689443
:1032E000FF24F3F8F11076C053FE74C08B8D9C8DD3
:1032F00040E050E061E274E50E960E9488088B8DF4
:103300009C8D40E050E061E274E546960E9488089A
:10331000AB8CBC8C09A51AA5B501C8010E94EC08AC
:103320003B014C0180E2D5011B968C936B8D7C8D0B
:1033300020E030E0A901C8010E9419098B8D9C8D05
:1033400040E050E0BA014C960E948808E9A5FAA531
:1033500081E084836114710481049104D9F184A50E
:1033600095A5A6A5B7A58DA79EA7AFA7B8AB00E06A
:1033700010E09801B401A301CE0101960E947514DA
:10338000F82E811127C04DA55EA56FA578A989A546
:103390009AA50E94500CF82EE9A5FAA5D401C30104
:1033A0000197A109B10984879587A687B78712C0BD
:1033B000F11010C08D8184FD05C011FF0BC080FD90
:1033C00005C008C06894FF24F2F804C00F2EF7E08F
:1033D000FF2EF02DF11014C053FE03C0952D906404
:1033E000592EE9A5FAA584A595A5A6A5B7A5F60128
:1033F000848F958FA68FB78F8B8D9C8D91A380A383
:10340000F110CEC06B8C7C8C09A51AA5B301C80144
:103410000E94EC086DA77EA78FA798ABD6011696E1
:103420006D937D938D939C931997C3014C960E9445
:1034300069084B015C01F601628773878487958771
:1034400011830083D80116968D919C9117979383D1
:10345000828356861786108E118E128E138E108AD6
:10346000118A128A138A1601B2E22B0E311C80E0F7
:1034700092E0F1019C01119221503040E1F755FE9C
:103480008FC081149104A104B10409F489C0D6014C
:1034900050968D929D92AD92BC925397F8014284C2
:1034A0005384612C712C032E39E0440C551C661C8E
:1034B000771C3A95D1F7302D22C04DA55EA56FA59A
:1034C00078A9C6010E945C116DA77EA78FA798AB53
:1034D000623071058105910518F46894FF24F1F8B4
:1034E0008DA59EA5AFA5B8A98F3F9F4FAF4FBF4FEA
:1034F00011F4FF24F39484189508A608B708F11076
:1035000005C0481459046A047B04B8F28DA59EA531
:10351000AFA5B8A9F601848B958BA68BB78BF1105C
:103520003FC0D501C4019170AA27BB27892B8A2BE4
:103530008B2BB1F169A47AA44DA55EA56FA578A9DE
:10354000C3010E94BE08611571058105910511F145
:10355000950184010F2EF9E036952795179507956B
:10356000FA95D1F7F02DA9019801260F371F481FB2
:10357000591FD60158962D933D934D935C935B97BD
:1035800001E010E0B101F30181810E94E90681119F
:1035900005C006C06894FF24F1F802C0FF24F3942C
:1035A000FF2039F0D6011D921C928F2D03C089E0B7
:1035B00001C08F2DE0960FB6F894DEBF0FBECDBFD1
:1035C000DF91CF911F910F91FF90DF90CF90BF902F
:1035D000AF909F908F907F906F905F904F903F90B3
:1035E0002F9008952F923F924F925F926F927F9209
:1035F0008F929F92AF92BF92CF92DF92EF92FF9203
:103600000F931F93CF93DF93CDB7DEB728970FB6F5
:10361000F894DEBF0FBECDBF7C014B016A0159019A
:10362000D9011D921C928F83F886BE016F5F7F4F78
:103630000E94C10B811187C1F7018785811183C168
:10364000868581FF7FC180899189A289B389AC0178
:10365000BD014C0D5D1D611D711D481759076A079D
:103660007B0708F062C16C01C094D0945EC1F70181
:1036700080899189A289B389AC01BD015170662707
:103680007727452B462B472B09F008C1E981FA81A2
:1036900062847384F1E06F1A7108AC01BD01032EDE
:1036A00039E076956795579547953A95D1F7302D3E
:1036B000642275226114710409F051C0892B8A2B90
:1036C0008B2BA1F4D70116966D917D918D919C91D4
:1036D0001997611571058105910589F440E050E065
:1036E000BA018F8198850E94241309C0F70144898B
:1036F0005589668977898F8198850E942413611581
:1037000071058105910509F414C1613071058105C8
:10371000910529F482E0D7011F968C9314C16F3F65
:10372000BFEF7B078B079B0721F481E0F7018787B9
:103730000AC1D70154966D937D938D939C935797AF
:1037400016960D911D912D913C911997012B022BED
:10375000032B29F4F7016683778380879187D7014C
:103760001E968C911E978823ECF4E981FA81589675
:103770002D913D914D915C915B9701E010E0B70177
:103780006E5D7F4F81810E943F07882321F081E099
:10379000F7018787D8C0D7011E968C911E978F7727
:1037A0001E968C93F70144895589668977898981AA
:1037B0009A819E838D830E94BE08611571058105E3
:1037C000910529F482E0D7011F968C93BCC01B01A0
:1037D0002C01260C371C411C511CF601EF2FFF2732
:1037E000E695FC83EB83309741F1AD81BE811A965B
:1037F0002D913C911B97CF01860D971D28173907F6
:1038000028F4F901E619F709FC83EB830B811C818D
:10381000A2019101B401AD81BE8111968C910E94EB
:103820003F07882321F081E0F70187878CC06B80F8
:103830007C80762C6624770C50C0F701808D918DAA
:10384000A28DB38D281639064A065B0601F1408920
:1038500051896289738982859385A485B5854817C6
:1038600059076A077B0798F401E010E0A201910173
:10387000B7016E5D7F4FAD81BE8111968C910E9424
:10388000E906882321F081E0F70187875CC0D70132
:1038900058962D923D924D925C925B97F7018089EC
:1038A0009189A289B389917020E032E03901681AC8
:1038B000790AC614D70408F43601A301B4019701AC
:1038C0002E5D3F4F820F931F0E94E423D7011E9667
:1038D0008C911E9780681E968C93C618D708F501A8
:1038E00080819181860D971D91838083860C971C22
:1038F000F70180899189A289B389860D971DA11D41
:10390000B11D808B918BA28BB38B428553856485CF
:10391000758584179507A607B70710F4DB01CA0160
:10392000F70182879387A487B587C114D10409F072
:103930009ECED7011E968C911E9780641E968C9306
:1039400080E001C087E028960FB6F894DEBF0FBE76
:10395000CDBFDF91CF911F910F91FF90EF90DF903E
:10396000CF90BF90AF909F908F907F906F905F901F
:103970004F903F902F900895CF92DF92EF92FF9259
:103980000F931F93CF93DF9300D0CDB7DEB7FC0129
:103990002281338133237CF18C01C480D58079016D
:1039A000FFEFEF1AFF0AFC01E20FF31F66838CE3BF
:1039B000E816F104BCF09E012F5F3F4FA701B8014C
:1039C0006A5F7F4FF801808191810E94F21A89819C
:1039D0009A81E816F90619F4E12CF12C03C0EE24C3
:1039E000EA94FE2CF801F382E282FFEFCF1ADF0A9D
:1039F000F801D582C4820F900F90DF91CF911F9173
:103A00000F91FF90EF90DF90CF9008950F931F9349
:103A1000CF93DF9300D0CDB7DEB7FC014281538155
:103A20005523C4F08C01BC016A5F7F4F9E012F5F5C
:103A30003F4F808191810E94F21A81110EC0F801DE
:103A40002281338189819A812817390749F4848139
:103A5000958108C08FEF9FEF05C08FEF9FEF02C0E9
:103A60008FEF9FEF0F900F90DF91CF911F910F91EC
:103A70000895EF92FF920F931F93CF93DF9300D09F
:103A8000CDB7DEB77C01BE016F5F7F4F0E94C10BD7
:103A9000811163C0D7011E969C911E9796FF5DC051
:103AA0009923B4F4E981FA8158962D913D914D9175
:103AB0005C915B9701E010E0B7016E5D7F4F818103
:103AC0000E943F07811148C0F70186858F7786875E
:103AD000D7015C964D915D916D917C915F97898145
:103AE0009A810E94500C811138C0F70100A111A1E8
:103AF000D8011B968C911B9780621B968C93268114
:103B0000378140855185B801808191810E941909D2
:103B1000F7014285538564857585C8014C960E94DE
:103B2000880840E050E061E274E5C80146960E94D2
:103B3000880860E070E0C80142960E94840889818C
:103B40009A8121E0DC0114962C930E944F18F70112
:103B500096859F7B968701C081E00F900F90DF9143
:103B6000CF911F910F91FF90EF9008950F931F93A6
:103B7000CF93DF9300D0CDB7DEB78C010E94391D03
:103B800081110BC0BE016F5F7F4FC8010E94C10B46
:103B9000811103C0F801118210820F900F90DF9104
:103BA000CF911F910F9108952F923F924F925F9264
:103BB0006F927F928F929F92AF92BF92CF92DF923D
:103BC000EF92FF920F931F93CF93DF93CDB7DEB7A2
:103BD000CA56D1090FB6F894DEBF0FBECDBFCF577E
:103BE000DF4FC880D980C158D04028961FAE289793
:103BF000C158DF4F68817981CF57D040CE010196FF
:103C00000E94DF161E0123E8220E311C86010F5F81
:103C10001F4FF6016081662309F420C2653231F03E
:103C2000CE0101960E94BC1C6801F0CFC60102962D
:103C3000F6017180F0E37F120DC0F60172809601EB
:103C40002D5F3F4F690130E3A9963FAFA997412C03
:103C5000512C19C0EDE27E120FC0F6017280960160
:103C60002D5F3F4F690130E2A9963FAFA997689455
:103C7000442441F8512C07C06C0180E2A9968FAF13
:103C8000A997412C512C9AE2791224C0F101E080CD
:103C9000F180F601708091012E5F3F4F1901C6013E
:103CA00001966C011DC0C701880F991FEE0CFF1C07
:103CB000EE0CFF1CEE0CFF1CE80EF91EE70CF11CCD
:103CC00090E3E91AF108F601708096012F5F3F4FEB
:103CD000690102C0E12CF12C80ED870D8A3018F3C8
:103CE0003EE2731232C0C6010196F6017080FAE21C
:103CF0007F1223C0F101A080B180F6017180910193
:103D00002E5F3F4F190101966C0122C0C501880F3B
:103D1000991FAA0CBB1CAA0CBB1CAA0CBB1CA80E8E
:103D2000B91EA70CB11C90E3A91AB108F601708066
:103D300096012F5F3F4F690103C06C01A12CB12C8C
:103D400080ED870D8A3010F303C0AA24AA94BA2C00
:103D50003CE6731208C0689442F8F6017080960140
:103D60002F5F3F4F6901772009F478C1872D90E0DC
:103D7000FC01E554F109E433F10508F0C5C0E85B46
:103D8000FF4F0C9404230F2EFAE08F2E912CF02D70
:103D9000CAC06894882484F8912CC5C081010E5F44
:103DA0001F4FF1016081CE0101960E94BC1C1801D9
:103DB0002DCF91012E5F3F4FAB963FAF2EAFAB970C
:103DC000F101608071806114710421F43E01F7E417
:103DD0006F0E711C00E010E002C00F5F1F4FF30177
:103DE000E00FF11F80818111F8CFBB2074F0A01685
:103DF000B10658F4850109C0A9966FADA997CE0107
:103E000001960E94BC1C0F5F1F4F41FC0CC00E1599
:103E10001F0590F308C02FEF621A720ACE010196B7
:103E20000E94BC1C5401F3016081662369F04501C6
:103E3000F1E08F1A9108AB2871F706C060E2CE015D
:103E400001960E94BC1C850158012FEFA21AB20AEC
:103E50000E151F0598F3AB962EAC3FACAB97D6CEA4
:103E6000C1010496AB969FAF8EAFAB97F101408135
:103E70005181628173814E01F8E48F0E911C072DF0
:103E80009501C4010E94160AF40101900020E9F78F
:103E900031978F010819190909C0A9966FADA99723
:103EA000CE0101960E94BC1C0F5F1F4F41FC0EC04B
:103EB0000E151F0590F3A12CB12C0AC02FEFA21AEA
:103EC000B20ACE0101960E94BC1C02C0A12CB12CEA
:103ED000E8E4F0E0EC0FFD1FEA0DFB1D60816111CD
:103EE000EDCF06C060E2CE0101960E94BC1C8501A8
:103EF00058013FEFA31AB30A0E151F0598F3AB96AE
:103F00002EAC3FACAB9782CE672DCE0101960E94BE
:103F1000BC1C7CCE6894882481F8912C04C06894E1
:103F2000882483F8912C42FE0AC0F10160817181DE
:103F30008281938191012C5F3F4F190118C034E6B3
:103F400073120CC0F10160817181072E000C880B87
:103F5000990B91012E5F3F4F190109C0F10160815A
:103F6000718180E090E091012E5F3F4F190134E6AE
:103F700073120BC099234CF49095809570956195C0
:103F80007F4F8F4F9F4F689440F8A12CB12C01C0F8
:103F90005801840120E030E0A90198010E94E2224A
:103FA000F62FE62F622F732F842F952FFA3038F0DB
:103FB000E8E77E1202C0E7E201C0E7E0EF0F85010B
:103FC0000F5F1F4FA8E4B0E0AC0FBD1FAA0DBB1DD3
:103FD000E05DEC93611571058105910519F00032E2
:103FE0001105B0F240FE0BC0E8E4F0E0EC0FFD1F5D
:103FF000E00FF11F8DE2808385010E5F1F4F580196
:104000000AC0A9966FADA997CE0101960E94BC1C6B
:10401000FFEFAF1ABF0A41FC03C0AE14BF0488F320
:1040200001501109E8E4F0E0EC0FFD1FE00FF11F73
:104030006081CE0101960E94BC1C0115110581F71B
:1040400006C060E2CE0101960E94BC1C58018501A9
:104050000F5F1F4FAE14BF04A0F3D8CDCE01019661
:104060000E94061DC659DF4F0FB6F894DEBF0FBE83
:10407000CDBFDF91CF911F910F91FF90EF90DF9017
:10408000CF90BF90AF909F908F907F906F905F90F8
:104090004F903F902F90089584B1806B84B981B187
:1040A000806481B982B1806482B98CB580658CBD31
:1040B00008958EBD0DB407FEFDCF08958EBD0DB4DD
:1040C00007FEFDCF8EB508951092CD008CE0809351
:1040D000CC0088E18093C90086E08093CA000895EF
:1040E0008091C8008823E4F78091CE0008959091D4
:1040F000C80095FFFCCF8093CE000895CF93DF9347
:10410000EC0103C00E947720219688818111FACFAB
:10411000DF91CF9108955058BB27AA270E94A32072
:104120000C941D220E940F2238F00E94162220F0CB
:1041300039F49F3F19F426F40C940C220EF4E09508
:10414000E7FB0C940622E92F0E942E2258F3BA179F
:10415000620773078407950720F079F4A6F50C949D
:1041600050220EF4E0950B2EBA2FA02D0B01B901B1
:1041700090010C01CA01A0011124FF27591B99F0DD
:10418000593F50F4503E68F11A16F040A22F232FE9
:10419000342F4427585FF3CF469537952795A79539
:1041A000F0405395C9F77EF41F16BA0B620B730BE0
:1041B000840BBAF09150A1F0FF0FBB1F661F771F51
:1041C000881FC2F70EC0BA0F621F731F841F48F406
:1041D000879577956795B795F7959E3F08F0B0CF8F
:1041E0009395880F08F09927EE0F97958795089576
:1041F0000E94E22108F481E008950E9411210C94AC
:104200001D220E94162258F00E940F2240F029F42D
:104210005F3F29F00C94062251110C9451220C940A
:104220000C220E942E2268F39923B1F3552391F3B7
:10423000951B550BBB27AA2762177307840738F015
:104240009F5F5F4F220F331F441FAA1FA9F335D072
:104250000E2E3AF0E0E832D091505040E695001C26
:10426000CAF72BD0FE2F29D0660F771F881FBB1FE0
:10427000261737074807AB07B0E809F0BB0B802DBE
:10428000BF01FF2793585F4F3AF09E3F510578F0EA
:104290000C9406220C9451225F3FE4F3983ED4F331
:1042A000869577956795B795F7959F5FC9F7880FBE
:1042B000911D9695879597F90895E1E0660F771F10
:1042C000881FBB1F621773078407BA0720F0621BA1
:1042D000730B840BBA0BEE1F88F7E09508950E94CC
:1042E00076216894B1110C94512208950E943622CF
:1042F00088F09F5798F0B92F9927B751B0F0E1F0A7
:10430000660F771F881F991F1AF0BA95C9F714C056
:10431000B13091F00E945022B1E008950C945022E7
:10432000672F782F8827B85F39F0B93FCCF386958F
:1043300077956795B395D9F73EF4909580957095EC
:1043400061957F4F8F4F9F4F0895E89409C097FB69
:104350003EF490958095709561957F4F8F4F9F4F5C
:104360009923A9F0F92F96E9BB279395F6958795A0
:1043700077956795B795F111F8CFFAF4BB0F11F463
:1043800060FF1BC06F5F7F4F8F4F9F4F16C088230A
:1043900011F096E911C0772321F09EE8872F762F40
:1043A00005C0662371F096E8862F70E060E02AF081
:1043B0009A95660F771F881FDAF7880F969587956D
:1043C00097F90895990F0008550FAA0BE0E8FEEF42
:1043D00016161706E807F907C0F012161306E407C9
:1043E000F50798F0621B730B840B950B39F40A26C2
:1043F00061F0232B242B252B21F408950A2609F4A0
:10440000A140A6958FEF811D811D089597F99F67A3
:1044100080E870E060E008959FEF80EC089500244C
:104420000A941616170618060906089500240A9419
:1044300012161306140605060895092E0394000C9F
:1044400011F4882352F0BB0F40F4BF2B11F460FF2E
:1044500004C06F5F7F4F8F4F9F4F089557FD905857
:10446000440F551F59F05F3F71F04795880F97FB38
:10447000991F61F09F3F79F08795089512161306F2
:104480001406551FF2CF4695F1DF08C01616170621
:104490001806991FF1CF8695710561050894089556
:1044A000E894BB2766277727CB0197F908950E94E8
:1044B000E22108F48FEF08950E946F220C941D22D0
:1044C0000E940F2238F00E94162220F0952311F04E
:1044D0000C9406220C940C2211240C9451220E945C
:1044E0002E2270F3959FC1F3950F50E0551F629FE8
:1044F000F001729FBB27F00DB11D639FAA27F00D3D
:10450000B11DAA1F649F6627B00DA11D661F829F63
:104510002227B00DA11D621F739FB00DA11D621F48
:10452000839FA00D611D221F749F3327A00D611D65
:10453000231F849F600D211D822F762F6A2F112447
:104540009F5750409AF0F1F088234AF0EE0FFF1F7A
:10455000BB1F661F771F881F91505040A9F79E3FD1
:10456000510580F00C9406220C9451225F3FE4F335
:10457000983ED4F3869577956795B795F795E79527
:104580009F5FC1F7FE2B880F911D9695879597F930
:1045900008950E94E221880B990B089597FB072E3E
:1045A00016F4009407D077FD09D00E94AB2307FCD6
:1045B00005D03EF4909581959F4F08957095619533
:1045C0007F4F0895A1E21A2EAA1BBB1BFD010DC04F
:1045D000AA1FBB1FEE1FFF1FA217B307E407F507B3
:1045E00020F0A21BB30BE40BF50B661F771F881F8F
:1045F000991F1A9469F760957095809590959B0125
:10460000AC01BD01CF010895EE0FFF1F0590F4919D
:10461000E02D09940E94BF23A59F900DB49F900D9B
:10462000A49F800D911D11240895689401C0E89401
:104630008F929F92CF93DF930E942323DF91CF919C
:104640009F908F90089588249924F401E401B0E4A8
:104650009F93AA279A158B049C04ED05FE05CF05B0
:10466000D007A10798F4AD2FDC2FCF2FFE2FE92D17
:10467000982C892E982F872F762F652F542F432F14
:10468000322F2227B85031F7BF9127C01B2EBF9180
:10469000BB27220F331F441F551F661F771F881F1C
:1046A000991F881C991CEE1FFF1FCC1FDD1FAA1F1E
:1046B000BB1F8A149B04EC05FD05CE05DF05A00792
:1046C000B10748F08A189B08EC09FD09CE09DF09FB
:1046D000A00BB10B21601A94E1F62EF49401AF0106
:1046E000BE01CD01000C08950F93083090F0982F73
:1046F000872F762F652F542F432F322F22270850D4
:10470000F4CF220F331F441F551F661F771F881FCA
:10471000991F0A95B2F70F91089597FB10F8169418
:1047200000080F93083098F00850232F342F452F9E
:10473000562F672F782F892F902DF4CF05949795BA
:1047400087957795679557954795379527950A9556
:10475000AAF70F910895AA1BBB1B51E107C0AA1F1E
:10476000BB1FA617B70710F0A61BB70B881F991F12
:104770005A95A9F780959095BC01CD010895A29F07
:10478000B001B39FC001A39F700D811D1124911D25
:10479000B29F700D811D1124911D08956627772702
:1047A0000C94132946ED52E00E940D240895FB015C
:1047B000DC0104C08D910190801921F441505040DA
:1047C000C8F7881B990B0895FB01DC0102C001901A
:1047D0000D9241505040D8F70895DC0101C06D930F
:1047E00041505040E0F70895FC018191861721F077
:1047F0008823D9F7992708953197CF010895FB01B0
:10480000DC014150504030F08D910190801919F435
:104810000020B9F7881B990B0895FA01A191B08186
:10482000009719F41097E1F0CD01DC01CD010D9056
:10483000002011F4C00113C0FB012191222319F0C3
:104840002015D9F7F3CFFB012191201519F41E9201
:10485000119606C02223C1F70D900020A1F7D001C8
:10486000FA01A193B0830895A0E0B0E0EAE3F4E296
:104870000C94A72BAE014B5F5F4FFA0161917191D0
:10488000AF0180913107909132070E948524E2E0C8
:104890000C94C32BAEE0B0E0E0E5F4E20C94A52B61
:1048A0000D891E8986E08C831A8309838FEF9FE729
:1048B0009E838D83AE01475E5F4F6F89788DCE01F9
:1048C00001960E948524EF81F885E00FF11F108288
:1048D0002E96E4E00C94C12BAEE0B0E0E2E7F4E207
:1048E0000C94A72B85E08C838B899C899A83898380
:1048F000AE01495E5F4F6D897E89CE0101960E94AF
:1049000002282E96E2E00C94C32BABE0B0E0EBE87B
:10491000F4E20C94972B6C017B018A01FC01178255
:104920001682838181FFCCC1CE0101963C01F60144
:104930009381F70193FD859193FF81917F018823F6
:1049400009F4BAC1853239F493FD859193FF8191C1
:104950007F01853229F4B60190E00E94E12AE7CF79
:10496000912C212C312CFFE1F315D8F08B3279F00A
:1049700038F4803279F08332A1F4232D20611DC0F8
:104980008D3261F0803369F4232D216016C0832DB0
:104990008260382EE32DE4603E2E2AC0F32DF860AD
:1049A0001DC037FC2DC020ED280F2A3040F08E327C
:1049B000B9F436FC81C1232D2064322E19C036FE95
:1049C00006C08AE0989E200D1124922E11C0EAE0C4
:1049D0002E9E200D1124222EF32DF0623F2E08C0B2
:1049E0008C3621F4832D8068382E02C0883641F43D
:1049F000F70193FD859193FF81917F018111B3CFE1
:104A0000982F9F7D9554933028F40C5F1F4F9FE3A0
:104A100099830DC0833631F0833771F0833509F007
:104A200059C021C0F801808189830E5F1F4F8824FF
:104A30008394912C530113C02801F2E04F0E511CB6
:104A4000F801A080B18036FE03C0692D70E002C07D
:104A50006FEF7FEFC5010E94982A4C018201F32D70
:104A6000FF773F2E16C0280122E0420E511CF801AC
:104A7000A080B18036FE03C0692D70E002C06FEFE8
:104A80007FEFC5010E948D2A4C01F32DF0683F2E67
:104A9000820133FC1BC0822D90E088169906B0F489
:104AA000B60180E290E00E94E12A2A94F4CFF50159
:104AB00037FC859137FE81915F01B60190E00E943D
:104AC000E12A21102A9421E0821A9108811491048C
:104AD00071F7E8C0843611F0893641F5F80137FEE8
:104AE00007C060817181828193810C5F1F4F08C074
:104AF00060817181072E000C880B990B0E5F1F4F90
:104B0000F32DFF763F2E97FF09C090958095709505
:104B100061957F4F8F4F9F4FF0683F2E2AE030E026
:104B2000A3010E94362B882E861845C0853731F4A4
:104B3000232D2F7EB22E2AE030E025C0932D997FC1
:104B4000B92E8F36C1F018F4883579F0B5C08037AA
:104B500019F0883721F0B0C0E92FE061BE2EB4FE15
:104B60000DC0FB2DF460BF2E09C034FE0AC0292FF2
:104B70002660B22E06C028E030E005C020E130E01B
:104B800002C020E132E0F801B7FE07C06081718108
:104B9000828193810C5F1F4F06C06081718180E02C
:104BA00090E00E5F1F4FA3010E94362B882E8618BF
:104BB000FB2DFF773F2E36FE0DC0232D2E7FA22E1C
:104BC000891458F434FE0BC032FC09C0832D8E7E4C
:104BD000A82E05C0B82CA32C03C0B82C01C0B92C3A
:104BE000A4FE0FC0FE01E80DF11D8081803321F489
:104BF0009A2D997EA92E09C0A2FE06C0B394B39443
:104C000004C08A2D867809F0B394A3FC11C0A0FEDD
:104C100006C0B21488F4280C922C9B180EC0B21453
:104C200060F4B60180E290E00E94E12AB394F7CFED
:104C3000B21418F42B1802C0982C212CA4FE10C01A
:104C4000B60180E390E00E94E12AA2FE17C0A1FC19
:104C500003C088E790E002C088E590E0B6010CC090
:104C60008A2D867859F0A1FE02C08BE201C080E255
:104C7000A7FC8DE2B60190E00E94E12A891438F485
:104C8000B60180E390E00E94E12A9A94F7CF8A94DB
:104C9000F301E80DF11D8081B60190E00E94E12A48
:104CA0008110F5CF222009F442CEB60180E290E0D7
:104CB0000E94E12A2A94F6CFF6018681978102C0EC
:104CC0008FEF9FEF2B96E2E10C94B32B20FD09C0F0
:104CD000FC0123FD05C022FF02C073836283518360
:104CE0004083089544FD17C046FD17C0AB01BC01C9
:104CF000DA01FB01AA0FBB1FEE1FFF1F1094D1F7B3
:104D00004A0F5B1F6E1F7F1FCB01BA01660F771F13
:104D1000881F991F09C033E001C034E0660F771F78
:104D2000881F991F3150D1F7620F711D811D911D90
:104D300008950F931F93CF93DF938C01C8010E94B6
:104D4000A32AEC0197FD08C00E94612A892BB1F7C4
:104D5000B801CE010E941D2BCE01DF91CF911F9192
:104D60000F9108958F929F92AF92BF92EF92FF9210
:104D70000F931F93CF93DF938C01D62F7A01B22E1E
:104D80000E94A32A9C0133272B32310531F02D32AA
:104D9000310561F48B2D8068B82ED15011F480E07C
:104DA00068C0C8010E94A32A97FDF9CFCB2DCD7F03
:104DB0002B2D207309F58033F9F4AA24AA94AD0EA3
:104DC00009F443C0C8010E94A32A97FD3EC09C017C
:104DD0002F7D33272835310549F4C264D250A9F11B
:104DE000C8010E94A32A97FF07C02FC0B6FE02C0C9
:104DF000C26001C0C261DA2D812C912C540120EDDA
:104E0000280F283080F0C4FF04C0B8010E941D2B79
:104E100019C02A3040F0C6FFF8CF2F7D3FEE320F89
:104E2000363098F727504C2FC501B4010E947226E6
:104E30004B015C01C260D15059F0C8010E94A32A05
:104E400097FFDDCFC1FD04C0AACF812C912C540166
:104E5000C7FF08C0B094A09490948094811C911CCA
:104E6000A11CB11C2C2FB501A401C7010E9466260C
:104E700081E0DF91CF911F910F91FF90EF90BF9054
:104E8000AF909F908F900895A0E2B0E0EAE4F7E23F
:104E90000C949A2B5C01962E7A01F9018E010F5F1A
:104EA0001F4F680180E2D8011D928A95E9F7D5016C
:104EB00013968C9080E090E0612C712C30E061E0E2
:104EC00070E083FC259183FE21918F01522E2111E8
:104ED00003C080E090E092C02E3511F4009751F1AC
:104EE000432F50E0481759073CF42D3559F12D3226
:104EF00019F4772009F103C0772009F46AC0452D21
:104F0000469546954695D601A40FB11D452D47708F
:104F10008B0102C0000F111F4A95E2F7A8015C91B6
:104F2000452B4C93651459F0561410F45394E7CF65
:104F30005A94E5CF31E004C07724739401C0712CFA
:104F40000196BFCF772019F08E8180628E83311158
:104F500003C08824839417C0F6019E012F5D3F4F44
:104F60008081809581932E173F07D1F7F2CFE1140E
:104F7000F10429F0D7018C93F70131967F019A94BF
:104F8000812C9920F9F0C5010E94A32A97FD18C031
:104F9000FC01FF2723E0F595E7952A95E1F7EC0D55
:104FA000FD1D208130E0AC014770552702C03595CA
:104FB00027954A95E2F720FDDACFB5010E941D2B17
:104FC000811087CFE114F10411F0D7011C92C801C0
:104FD00015C0422F469546954695D601A40FB11DA2
:104FE000422F47708B0102C0000F111F4A95E2F754
:104FF000A8015C91452B4C93622EA2CFA096EFE0C6
:105000000C94B62BA0E0B0E0E8E0F8E20C949A2B08
:105010006C01EB015A01FC0117821682512CF6013A
:10502000E380FE01E3FC8591E3FE8191182FEF01FF
:10503000882309F4EEC090E00E94612A892B21F0B8
:10504000C6010E949926EBCF153241F4FE01E3FC24
:105050001591E3FE1191EF01153281F4C6010E9412
:10506000A32A97FDD4C0412F50E09C013327241779
:105070003507A9F2B6010E941D2BCBC01A3239F4B4
:10508000E3FC1591E3FE1191EF0101E001C000E0A6
:10509000F12C20ED210F2A3080F402606F2D70E09A
:1050A00080E090E040E20E947226F62EFE01E3FCD2
:1050B0001591E3FE1191EF01ECCF01FF03C0F11058
:1050C00003C0A7C0FF24FA94183619F01C3651F01B
:1050D00010C0FE01E3FC1591E3FE1191EF011836BB
:1050E00041F408600460FE01E3FC1591E3FE1191B8
:1050F000EF01112309F48DC0612F70E088EF90E07B
:105100000E946A2A892B09F484C000FD07C0F501BA
:1051100080809180C50102965C0102C0812C912C97
:105120001E3651F4F6014681578160E070E0202F71
:10513000C4010E94662673CF1336A9F401FD02C094
:10514000FF24F394C6010E94A32A97FD60C0811436
:10515000910429F0F4018083C40101964C01FA9472
:10516000F110F0CF50C01B3559F49E01A4016F2DF2
:10517000C6010E944427EC01892B09F044C03EC0BF
:10518000C6010E94992697FD42C01F3661F128F49E
:10519000143639F1193651F128C0133771F015372B
:1051A00001F123C08114910429F0F4016082C4014B
:1051B00001964C01FA94FF2071F0C6010E94A32AC7
:1051C0003C0197FD08C00E94612A892B59F3B60162
:1051D000C3010E941D2B81149104A9F0F4011082D7
:1051E00012C0006203C0006101C00064202FA4014E
:1051F0006F2DC6010E94B226811105C0F601838180
:10520000807329F406C000FD0ACF539408CF5520BF
:1052100019F0852D90E002C08FEF9FEFCDB7DEB77C
:10522000EFE00C94B62BA0E0B0E0E9E1F9E20C94D9
:105230009D2BEC016B016115710519F0FB01918348
:1052400080837E01FFEFEF1AFF0A0881802F90E034
:105250000E94612A892B11F0E701F3CF0D3239F456
:105260007E0182E0E80EF11C098111E008C00B32DA
:1052700029F47E0192E0E90EF11C098110E0E701BA
:10528000219743E050E06CE071E0CE010E94752A66
:10529000892BC1F4239645E050E067E071E0CE0130
:1052A0000E94752A892B09F42596C114D10419F09E
:1052B000F601D183C0831111F6C060E070E080E890
:1052C0009FE7FAC043E050E064E071E0CE010E9445
:1052D000752A892B59F4C114D10409F4E9C0F2E00C
:1052E000EF0EF11CF601F182E082E2C020E030E036
:1052F000A901C0E0D0E0F70180EDA82EA00E89E062
:105300008A1530F1912F9260B92E812F887012FF8B
:1053100004C0811124C0219622C081112197A5E0EB
:10532000B0E00E940A23DC01CB01880F991FAA1F5D
:10533000BB1F9C01AD012A0D311D411D511D283996
:1053400089E93807480789E1580748F0166006C020
:105350009EEFA9120AC013FD40C01860B12E8FEF56
:10536000E81AF80A00811B2DC6CF802F8F7D853467
:10537000A1F580818D3211F4106106C08B3221F0CD
:10538000319661E070E004C08181329662E070E0A5
:1053900080538A3018F0E61BF70B1FC060E070E006
:1053A00060389CE079075CF4DB01AA0FBB1FAA0FF1
:1053B000BB1F6A0F7B1F660F771F680F711D319629
:1053C000DF0111978C9180538A3050F314FF03C092
:1053D000719561957109C60FD71F11FF08C0C114DF
:1053E000D10429F0CF010197F60191838083CA018E
:1053F000B9010E94A521212F2370233019F04B0100
:105400005C0106C04B015C01B7FAB094B7F8B094E8
:1054100020E030E0A901C501B4010E94F8208823F2
:1054200009F43EC0D7FF06C0D195C195D10903E26A
:1054300011E002C00BE311E06801F8E1CF1AD108D6
:1054400090E2E92EF12CCE15DF0574F0F8012591DC
:10545000359145915491C501B4010E945C224B01E4
:105460005C01CE19DF09EFCF04501109F594E794E0
:105470000C151D0541F78A2D880F8B2D881F8F3F36
:1054800049F020E030E0A901C501B4010E94F820F4
:10549000811106C082E290E0909336078093350731
:1054A000C501B40109C060E070E080E89FEF04C06E
:1054B00060E070E080EC9FE7CDB7DEB7ECE00C94E5
:1054C000B92B91110C94942B803219F0895085508E
:1054D000C8F70895FC010590061621F00020D9F7C1
:1054E000C00108953197CF010895FB01DC014150BF
:1054F000504088F08D9181341CF08B350CF4805E27
:10550000659161341CF06B350CF4605E861B611193
:1055100071F3990B0895881BFCCFFC010590615035
:1055200070400110D8F7809590958E0F9F1F0895B9
:10553000FC016150704001900110D8F78095909562
:105540008E0F9F1F0895CF93DF93EC012B8120FFD7
:1055500033C026FF0AC02F7B2B838E819F8101964B
:105560009F838E838A8190E029C022FF0FC0E8814B
:10557000F9818081082E000C990B009719F42062A4
:105580002B831AC03196F983E8830EC0EA85FB8528
:10559000099597FF09C02B81019611F080E201C0A7
:1055A00080E1822B8B8308C02E813F812F5F3F4F8C
:1055B0003F832E83992702C08FEF9FEFDF91CF911A
:1055C00008950F931F93CF93DF93FB01238121FD58
:1055D00003C08FEF9FEF2CC022FF16C0468157817A
:1055E000248135814217530744F4A081B1819D0184
:1055F0002F5F3F4F318320838C93268137812F5F2C
:105600003F4F3783268314C08B01EC01FB010084DC
:10561000F185E02D0995892BE1F6D80116968D913B
:105620009C911797019617969C938E931697CE018F
:10563000DF91CF911F910F910895FB01238120FFEE
:1056400012C026FD10C08F3F3FEF930761F08283A9
:105650002F7D2064238326813781215031093783B0
:105660002683992708958FEF9FEF0895FA01AA27BF
:10567000283051F1203181F1E8946F936E7F6E5F95
:105680007F4F8F4F9F4FAF4FB1E03ED0B4E03CD043
:10569000670F781F891F9A1FA11D680F791F8A1F26
:1056A000911DA11D6A0F711D811D911DA11D20D08D
:1056B00009F468943F912AE0269F11243019305D47
:1056C0003193DEF6CF010895462F4770405D419338
:1056D000B3E00FD0C9F7F6CF462F4F70405D4A3385
:1056E00018F0495D31FD4052419302D0A9F7EACF4D
:1056F000B4E0A6959795879577956795BA95C9F77C
:1057000000976105710508959B01AC010A2E06946E
:105710005795479537952795BA95C9F7620F731F27
:10572000841F951FA01D08959927882708952F92FB
:105730003F924F925F926F927F928F929F92AF9221
:10574000BF92CF92DF92EF92FF920F931F93CF936E
:10575000DF93CDB7DEB7CA1BDB0B0FB6F894DEBF05
:105760000FBECDBF09942A88398848885F846E842B
:105770007D848C849B84AA84B984C884DF80EE8075
:10578000FD800C811B81AA81B981CE0FD11D0FB67E
:10579000F894DEBF0FBECDBFED010895F894FFCFA2
:1057A000012C00524D43002532687525326875255D
:1057B00032687500253032687525303268752530BD
:1057C000326875003A3A25730A00303120303620AD
:1057D00035332034302031312030342032342034FD
:1057E00037383231323420313334393736300024CF
:1057F000505352463130332C302C302C302C312A3F
:1058000032340D0A0024505352463130332C312C9F
:10581000302C302C312A32350D0A00245053524698
:105820003130332C322C302C302C312A32360D0AC8
:105830000024505352463130332C332C302C302C32
:10584000312A32370D0A0024505352463130332C5E
:10585000352C302C302C312A32310D0A0024505393
:1058600052463130332C362C302C302C312A323207
:105870000D0A0024505352463130332C372C302C33
:10588000302C312A32330D0A002450535246313025
:10589000332C382C302C302C312A32430D0A002482
:1058A000505352463130332C392C302C302C312A85
:1058B00032440D0A0024505352463130332C342CDC
:1058C000302C32302C312A31320D0A00706F732E99
:1058D0007478740059592F4D4D2F44442048483A4C
:1058E0004D4D3A53533B4C4C2E4C4C4C4C4C3B4244
:1058F000422E42424242420D0A00253032642F2598
:105900003032642F2530326420253032643A25301D
:1059100032643A253032643B25663B25660D0A0029
:105920002530326875202530326875202530326880
:105930007520253032687520253032687520253075
:1059400032687520253032687520256C6420256CFE
:105950006400494E46004F56004E614E0046415489
:105960003332202020002A2B2C3A3B3C3D3E5B5D0D
:065970007C223F7F0000D5
:00000001FF
